{
  "_format": "hh-sol-artifact-1",
  "contractName": "NFTMarketplace",
  "sourceName": "contracts/NFTMarketplace.sol",
  "abi": [
    {
      "inputs": [],
      "stateMutability": "nonpayable",
      "type": "constructor"
    },
    {
      "anonymous": false,
      "inputs": [
        {
          "indexed": true,
          "internalType": "address",
          "name": "owner",
          "type": "address"
        },
        {
          "indexed": true,
          "internalType": "address",
          "name": "approved",
          "type": "address"
        },
        {
          "indexed": true,
          "internalType": "uint256",
          "name": "tokenId",
          "type": "uint256"
        }
      ],
      "name": "Approval",
      "type": "event"
    },
    {
      "anonymous": false,
      "inputs": [
        {
          "indexed": true,
          "internalType": "address",
          "name": "owner",
          "type": "address"
        },
        {
          "indexed": true,
          "internalType": "address",
          "name": "operator",
          "type": "address"
        },
        {
          "indexed": false,
          "internalType": "bool",
          "name": "approved",
          "type": "bool"
        }
      ],
      "name": "ApprovalForAll",
      "type": "event"
    },
    {
      "anonymous": false,
      "inputs": [
        {
          "indexed": true,
          "internalType": "uint256",
          "name": "tokenId",
          "type": "uint256"
        },
        {
          "indexed": false,
          "internalType": "address",
          "name": "owner",
          "type": "address"
        },
        {
          "indexed": false,
          "internalType": "address",
          "name": "seller",
          "type": "address"
        },
        {
          "indexed": false,
          "internalType": "uint256",
          "name": "price",
          "type": "uint256"
        },
        {
          "indexed": false,
          "internalType": "bool",
          "name": "currentlyListed",
          "type": "bool"
        }
      ],
      "name": "TokenListedSuccess",
      "type": "event"
    },
    {
      "anonymous": false,
      "inputs": [
        {
          "indexed": true,
          "internalType": "address",
          "name": "from",
          "type": "address"
        },
        {
          "indexed": true,
          "internalType": "address",
          "name": "to",
          "type": "address"
        },
        {
          "indexed": true,
          "internalType": "uint256",
          "name": "tokenId",
          "type": "uint256"
        }
      ],
      "name": "Transfer",
      "type": "event"
    },
    {
      "inputs": [
        {
          "internalType": "address",
          "name": "to",
          "type": "address"
        },
        {
          "internalType": "uint256",
          "name": "tokenId",
          "type": "uint256"
        }
      ],
      "name": "approve",
      "outputs": [],
      "stateMutability": "nonpayable",
      "type": "function"
    },
    {
      "inputs": [
        {
          "internalType": "address",
          "name": "owner",
          "type": "address"
        }
      ],
      "name": "balanceOf",
      "outputs": [
        {
          "internalType": "uint256",
          "name": "",
          "type": "uint256"
        }
      ],
      "stateMutability": "view",
      "type": "function"
    },
    {
      "inputs": [
        {
          "internalType": "string",
          "name": "tokenURI",
          "type": "string"
        },
        {
          "internalType": "uint256",
          "name": "price",
          "type": "uint256"
        }
      ],
      "name": "createToken",
      "outputs": [
        {
          "internalType": "uint256",
          "name": "",
          "type": "uint256"
        }
      ],
      "stateMutability": "payable",
      "type": "function"
    },
    {
      "inputs": [
        {
          "internalType": "uint256",
          "name": "tokenId",
          "type": "uint256"
        }
      ],
      "name": "executeSale",
      "outputs": [],
      "stateMutability": "payable",
      "type": "function"
    },
    {
      "inputs": [],
      "name": "getAllNFTs",
      "outputs": [
        {
          "components": [
            {
              "internalType": "uint256",
              "name": "tokenId",
              "type": "uint256"
            },
            {
              "internalType": "address payable",
              "name": "owner",
              "type": "address"
            },
            {
              "internalType": "address payable",
              "name": "seller",
              "type": "address"
            },
            {
              "internalType": "uint256",
              "name": "price",
              "type": "uint256"
            },
            {
              "internalType": "bool",
              "name": "currentlyListed",
              "type": "bool"
            }
          ],
          "internalType": "struct NFTMarketplace.ListedToken[]",
          "name": "",
          "type": "tuple[]"
        }
      ],
      "stateMutability": "view",
      "type": "function"
    },
    {
      "inputs": [
        {
          "internalType": "uint256",
          "name": "tokenId",
          "type": "uint256"
        }
      ],
      "name": "getApproved",
      "outputs": [
        {
          "internalType": "address",
          "name": "",
          "type": "address"
        }
      ],
      "stateMutability": "view",
      "type": "function"
    },
    {
      "inputs": [],
      "name": "getCurrentToken",
      "outputs": [
        {
          "internalType": "uint256",
          "name": "",
          "type": "uint256"
        }
      ],
      "stateMutability": "view",
      "type": "function"
    },
    {
      "inputs": [],
      "name": "getLatestIdToListedToken",
      "outputs": [
        {
          "components": [
            {
              "internalType": "uint256",
              "name": "tokenId",
              "type": "uint256"
            },
            {
              "internalType": "address payable",
              "name": "owner",
              "type": "address"
            },
            {
              "internalType": "address payable",
              "name": "seller",
              "type": "address"
            },
            {
              "internalType": "uint256",
              "name": "price",
              "type": "uint256"
            },
            {
              "internalType": "bool",
              "name": "currentlyListed",
              "type": "bool"
            }
          ],
          "internalType": "struct NFTMarketplace.ListedToken",
          "name": "",
          "type": "tuple"
        }
      ],
      "stateMutability": "view",
      "type": "function"
    },
    {
      "inputs": [],
      "name": "getListPrice",
      "outputs": [
        {
          "internalType": "uint256",
          "name": "",
          "type": "uint256"
        }
      ],
      "stateMutability": "view",
      "type": "function"
    },
    {
      "inputs": [
        {
          "internalType": "uint256",
          "name": "tokenId",
          "type": "uint256"
        }
      ],
      "name": "getListedTokenForId",
      "outputs": [
        {
          "components": [
            {
              "internalType": "uint256",
              "name": "tokenId",
              "type": "uint256"
            },
            {
              "internalType": "address payable",
              "name": "owner",
              "type": "address"
            },
            {
              "internalType": "address payable",
              "name": "seller",
              "type": "address"
            },
            {
              "internalType": "uint256",
              "name": "price",
              "type": "uint256"
            },
            {
              "internalType": "bool",
              "name": "currentlyListed",
              "type": "bool"
            }
          ],
          "internalType": "struct NFTMarketplace.ListedToken",
          "name": "",
          "type": "tuple"
        }
      ],
      "stateMutability": "view",
      "type": "function"
    },
    {
      "inputs": [],
      "name": "getMyNFTs",
      "outputs": [
        {
          "components": [
            {
              "internalType": "uint256",
              "name": "tokenId",
              "type": "uint256"
            },
            {
              "internalType": "address payable",
              "name": "owner",
              "type": "address"
            },
            {
              "internalType": "address payable",
              "name": "seller",
              "type": "address"
            },
            {
              "internalType": "uint256",
              "name": "price",
              "type": "uint256"
            },
            {
              "internalType": "bool",
              "name": "currentlyListed",
              "type": "bool"
            }
          ],
          "internalType": "struct NFTMarketplace.ListedToken[]",
          "name": "",
          "type": "tuple[]"
        }
      ],
      "stateMutability": "view",
      "type": "function"
    },
    {
      "inputs": [
        {
          "internalType": "address",
          "name": "owner",
          "type": "address"
        },
        {
          "internalType": "address",
          "name": "operator",
          "type": "address"
        }
      ],
      "name": "isApprovedForAll",
      "outputs": [
        {
          "internalType": "bool",
          "name": "",
          "type": "bool"
        }
      ],
      "stateMutability": "view",
      "type": "function"
    },
    {
      "inputs": [],
      "name": "name",
      "outputs": [
        {
          "internalType": "string",
          "name": "",
          "type": "string"
        }
      ],
      "stateMutability": "view",
      "type": "function"
    },
    {
      "inputs": [
        {
          "internalType": "uint256",
          "name": "tokenId",
          "type": "uint256"
        }
      ],
      "name": "ownerOf",
      "outputs": [
        {
          "internalType": "address",
          "name": "",
          "type": "address"
        }
      ],
      "stateMutability": "view",
      "type": "function"
    },
    {
      "inputs": [
        {
          "internalType": "address",
          "name": "from",
          "type": "address"
        },
        {
          "internalType": "address",
          "name": "to",
          "type": "address"
        },
        {
          "internalType": "uint256",
          "name": "tokenId",
          "type": "uint256"
        }
      ],
      "name": "safeTransferFrom",
      "outputs": [],
      "stateMutability": "nonpayable",
      "type": "function"
    },
    {
      "inputs": [
        {
          "internalType": "address",
          "name": "from",
          "type": "address"
        },
        {
          "internalType": "address",
          "name": "to",
          "type": "address"
        },
        {
          "internalType": "uint256",
          "name": "tokenId",
          "type": "uint256"
        },
        {
          "internalType": "bytes",
          "name": "_data",
          "type": "bytes"
        }
      ],
      "name": "safeTransferFrom",
      "outputs": [],
      "stateMutability": "nonpayable",
      "type": "function"
    },
    {
      "inputs": [
        {
          "internalType": "address",
          "name": "operator",
          "type": "address"
        },
        {
          "internalType": "bool",
          "name": "approved",
          "type": "bool"
        }
      ],
      "name": "setApprovalForAll",
      "outputs": [],
      "stateMutability": "nonpayable",
      "type": "function"
    },
    {
      "inputs": [
        {
          "internalType": "bytes4",
          "name": "interfaceId",
          "type": "bytes4"
        }
      ],
      "name": "supportsInterface",
      "outputs": [
        {
          "internalType": "bool",
          "name": "",
          "type": "bool"
        }
      ],
      "stateMutability": "view",
      "type": "function"
    },
    {
      "inputs": [],
      "name": "symbol",
      "outputs": [
        {
          "internalType": "string",
          "name": "",
          "type": "string"
        }
      ],
      "stateMutability": "view",
      "type": "function"
    },
    {
      "inputs": [
        {
          "internalType": "uint256",
          "name": "tokenId",
          "type": "uint256"
        }
      ],
      "name": "tokenURI",
      "outputs": [
        {
          "internalType": "string",
          "name": "",
          "type": "string"
        }
      ],
      "stateMutability": "view",
      "type": "function"
    },
    {
      "inputs": [
        {
          "internalType": "address",
          "name": "from",
          "type": "address"
        },
        {
          "internalType": "address",
          "name": "to",
          "type": "address"
        },
        {
          "internalType": "uint256",
          "name": "tokenId",
          "type": "uint256"
        }
      ],
      "name": "transferFrom",
      "outputs": [],
      "stateMutability": "nonpayable",
      "type": "function"
    },
    {
      "inputs": [
        {
          "internalType": "uint256",
          "name": "_listPrice",
          "type": "uint256"
        }
      ],
      "name": "updateListPrice",
      "outputs": [],
      "stateMutability": "payable",
      "type": "function"
    }
  ],
  "bytecode": "0x6080604052662386f26fc10000600a553480156200001c57600080fd5b50604080518082018252600e81526d4e46544d61726b6574706c61636560901b6020808301918252835180850190945260048452634e46544d60e01b9084015281519192916200006f91600091620000a0565b50805162000085906001906020840190620000a0565b5050600980546001600160a01b031916331790555062000183565b828054620000ae9062000146565b90600052602060002090601f016020900481019282620000d257600085556200011d565b82601f10620000ed57805160ff19168380011785556200011d565b828001600101855582156200011d579182015b828111156200011d57825182559160200191906001019062000100565b506200012b9291506200012f565b5090565b5b808211156200012b576000815560010162000130565b600181811c908216806200015b57607f821691505b602082108114156200017d57634e487b7160e01b600052602260045260246000fd5b50919050565b6121aa80620001936000396000f3fe6080604052600436106101355760003560e01c80638e264590116100ab578063c322579c1161006f578063c322579c14610354578063c87b56dd14610367578063d1a88ae514610387578063e0391b091461039c578063e985e9c5146103b1578063ef2d1746146103fa57600080fd5b80638e264590146102bf57806395d89b41146102ec5780639b1225c414610301578063a22cb46514610314578063b88d4fde1461033457600080fd5b806342842e0e116100fd57806342842e0e1461020b578063629cb2e41461022b5780636352211e1461024d57806368f1945f1461026d57806370a082311461028c57806372b3b620146102ac57600080fd5b806301ffc9a71461013a57806306fdde031461016f578063081812fc14610191578063095ea7b3146101c957806323b872dd146101eb575b600080fd5b34801561014657600080fd5b5061015a610155366004611db0565b61040f565b60405190151581526020015b60405180910390f35b34801561017b57600080fd5b50610184610461565b6040516101669190611f7c565b34801561019d57600080fd5b506101b16101ac366004611e3e565b6104f3565b6040516001600160a01b039091168152602001610166565b3480156101d557600080fd5b506101e96101e4366004611d87565b610580565b005b3480156101f757600080fd5b506101e9610206366004611c99565b610696565b34801561021757600080fd5b506101e9610226366004611c99565b6106c7565b34801561023757600080fd5b506102406106e2565b6040516101669190611f2e565b34801561025957600080fd5b506101b1610268366004611e3e565b610927565b34801561027957600080fd5b50600a545b604051908152602001610166565b34801561029857600080fd5b5061027e6102a7366004611c4d565b61099e565b61027e6102ba366004611de8565b610a25565b3480156102cb57600080fd5b506102df6102da366004611e3e565b610a67565b6040516101669190612032565b3480156102f857600080fd5b50610184610ad1565b6101e961030f366004611e3e565b610ae0565b34801561032057600080fd5b506101e961032f366004611d4d565b610c41565b34801561034057600080fd5b506101e961034f366004611cd4565b610c50565b6101e9610362366004611e3e565b610c82565b34801561037357600080fd5b50610184610382366004611e3e565b610cf2565b34801561039357600080fd5b506102df610e69565b3480156103a857600080fd5b50610240610ee0565b3480156103bd57600080fd5b5061015a6103cc366004611c67565b6001600160a01b03918216600090815260056020908152604080832093909416825291909152205460ff1690565b34801561040657600080fd5b5061027e611027565b60006001600160e01b031982166380ac58cd60e01b148061044057506001600160e01b03198216635b5e139f60e01b145b8061045b57506301ffc9a760e01b6001600160e01b03198316145b92915050565b606060008054610470906120af565b80601f016020809104026020016040519081016040528092919081815260200182805461049c906120af565b80156104e95780601f106104be576101008083540402835291602001916104e9565b820191906000526020600020905b8154815290600101906020018083116104cc57829003601f168201915b5050505050905090565b60006104fe82611037565b6105645760405162461bcd60e51b815260206004820152602c60248201527f4552433732313a20617070726f76656420717565727920666f72206e6f6e657860448201526b34b9ba32b73a103a37b5b2b760a11b60648201526084015b60405180910390fd5b506000908152600460205260409020546001600160a01b031690565b600061058b82610927565b9050806001600160a01b0316836001600160a01b031614156105f95760405162461bcd60e51b815260206004820152602160248201527f4552433732313a20617070726f76616c20746f2063757272656e74206f776e656044820152603960f91b606482015260840161055b565b336001600160a01b0382161480610615575061061581336103cc565b6106875760405162461bcd60e51b815260206004820152603860248201527f4552433732313a20617070726f76652063616c6c6572206973206e6f74206f7760448201527f6e6572206e6f7220617070726f76656420666f7220616c6c0000000000000000606482015260840161055b565b6106918383611054565b505050565b6106a033826110c2565b6106bc5760405162461bcd60e51b815260040161055b90611fe1565b6106918383836111ab565b61069183838360405180602001604052806000815250610c50565b606060006106ef60075490565b905060008060005b838110156107875733600b600061070f846001612040565b81526020810191909152604001600020600101546001600160a01b03161480610762575033600b6000610743846001612040565b81526020810191909152604001600020600201546001600160a01b0316145b1561077557610772600184612040565b92505b8061077f816120ea565b9150506106f7565b5060008267ffffffffffffffff8111156107b157634e487b7160e01b600052604160045260246000fd5b6040519080825280602002602001820160405280156107ea57816020015b6107d7611af4565b8152602001906001900390816107cf5790505b50905060005b8481101561091e5733600b6000610808846001612040565b81526020810191909152604001600020600101546001600160a01b0316148061085b575033600b600061083c846001612040565b81526020810191909152604001600020600201546001600160a01b0316145b1561090c57600061086d826001612040565b6000818152600b6020908152604091829020825160a0810184528154815260018201546001600160a01b039081169382019390935260028201549092169282019290925260038201546060820152600482015460ff1615156080820152855192935090918590879081106108f157634e487b7160e01b600052603260045260246000fd5b6020908102919091010152610907600186612040565b945050505b80610916816120ea565b9150506107f0565b50949350505050565b6000818152600260205260408120546001600160a01b03168061045b5760405162461bcd60e51b815260206004820152602960248201527f4552433732313a206f776e657220717565727920666f72206e6f6e657869737460448201526832b73a103a37b5b2b760b91b606482015260840161055b565b60006001600160a01b038216610a095760405162461bcd60e51b815260206004820152602a60248201527f4552433732313a2062616c616e636520717565727920666f7220746865207a65604482015269726f206164647265737360b01b606482015260840161055b565b506001600160a01b031660009081526003602052604090205490565b6000610a35600780546001019055565b6000610a4060075490565b9050610a4c3382611347565b610a568185611361565b610a6081846113ec565b9392505050565b610a6f611af4565b506000908152600b6020908152604091829020825160a0810184528154815260018201546001600160a01b03908116938201939093526002820154909216928201929092526003820154606082015260049091015460ff161515608082015290565b606060018054610470906120af565b6000818152600b6020526040902060038101546002909101546001600160a01b0316348214610b79576040805162461bcd60e51b81526020600482015260248101919091527f506c65617365207375626d6974207468652061736b696e67207072696365206960448201527f6e206f7264657220746f20636f6d706c65746520746865207075726368617365606482015260840161055b565b6000838152600b6020526040902060048101805460ff1916905560020180546001600160a01b03191633179055610bb4600880546001019055565b610bbf3033856111ab565b610bc93084610580565b600954600a546040516001600160a01b039092169181156108fc0291906000818181858888f19350505050158015610c05573d6000803e3d6000fd5b506040516001600160a01b038216903480156108fc02916000818181858888f19350505050158015610c3b573d6000803e3d6000fd5b50505050565b610c4c33838361158e565b5050565b610c5a33836110c2565b610c765760405162461bcd60e51b815260040161055b90611fe1565b610c3b8484848461165d565b6009546001600160a01b03163314610ced5760405162461bcd60e51b815260206004820152602860248201527f4f6e6c7920746865206f776e65722063616e2075706461746520746865206c69604482015267737420707269636560c01b606482015260840161055b565b600a55565b6060610cfd82611037565b610d635760405162461bcd60e51b815260206004820152603160248201527f45524337323155524953746f726167653a2055524920717565727920666f72206044820152703737b732bc34b9ba32b73a103a37b5b2b760791b606482015260840161055b565b60008281526006602052604081208054610d7c906120af565b80601f0160208091040260200160405190810160405280929190818152602001828054610da8906120af565b8015610df55780601f10610dca57610100808354040283529160200191610df5565b820191906000526020600020905b815481529060010190602001808311610dd857829003601f168201915b505050505090506000610e1360408051602081019091526000815290565b9050805160001415610e26575092915050565b815115610e58578082604051602001610e40929190611ec2565b60405160208183030381529060405292505050919050565b610e6184611690565b949350505050565b610e71611af4565b6000610e7c60075490565b6000908152600b6020908152604091829020825160a0810184528154815260018201546001600160a01b03908116938201939093526002820154909216928201929092526003820154606082015260049091015460ff161515608082015292915050565b60606000610eed60075490565b905060008167ffffffffffffffff811115610f1857634e487b7160e01b600052604160045260246000fd5b604051908082528060200260200182016040528015610f5157816020015b610f3e611af4565b815260200190600190039081610f365790505b5090506000805b8381101561101e576000610f6d826001612040565b6000818152600b6020908152604091829020825160a0810184528154815260018201546001600160a01b039081169382019390935260028201549092169282019290925260038201546060820152600482015460ff161515608082015286519293509091869086908110610ff157634e487b7160e01b600052603260045260246000fd5b6020908102919091010152611007600185612040565b935050508080611016906120ea565b915050610f58565b50909392505050565b600061103260075490565b905090565b6000908152600260205260409020546001600160a01b0316151590565b600081815260046020526040902080546001600160a01b0319166001600160a01b038416908117909155819061108982610927565b6001600160a01b03167f8c5be1e5ebec7d5bd14f71427d1e84f3dd0314c0f7b2291e5b200ac8c7c3b92560405160405180910390a45050565b60006110cd82611037565b61112e5760405162461bcd60e51b815260206004820152602c60248201527f4552433732313a206f70657261746f7220717565727920666f72206e6f6e657860448201526b34b9ba32b73a103a37b5b2b760a11b606482015260840161055b565b600061113983610927565b9050806001600160a01b0316846001600160a01b0316148061118057506001600160a01b0380821660009081526005602090815260408083209388168352929052205460ff165b80610e615750836001600160a01b0316611199846104f3565b6001600160a01b031614949350505050565b826001600160a01b03166111be82610927565b6001600160a01b0316146112225760405162461bcd60e51b815260206004820152602560248201527f4552433732313a207472616e736665722066726f6d20696e636f72726563742060448201526437bbb732b960d91b606482015260840161055b565b6001600160a01b0382166112845760405162461bcd60e51b8152602060048201526024808201527f4552433732313a207472616e7366657220746f20746865207a65726f206164646044820152637265737360e01b606482015260840161055b565b61128f600082611054565b6001600160a01b03831660009081526003602052604081208054600192906112b890849061206c565b90915550506001600160a01b03821660009081526003602052604081208054600192906112e6908490612040565b909155505060008181526002602052604080822080546001600160a01b0319166001600160a01b0386811691821790925591518493918716917fddf252ad1be2c89b69c2b068fc378daa952ba7f163c4a11628f55a4df523b3ef91a4505050565b610c4c828260405180602001604052806000815250611767565b61136a82611037565b6113cd5760405162461bcd60e51b815260206004820152602e60248201527f45524337323155524953746f726167653a2055524920736574206f66206e6f6e60448201526d32bc34b9ba32b73a103a37b5b2b760911b606482015260840161055b565b6000828152600660209081526040909120825161069192840190611b22565b600a5434146114495760405162461bcd60e51b815260206004820152602360248201527f486f706566756c6c792073656e64696e672074686520636f727265637420707260448201526269636560e81b606482015260840161055b565b600081116114a45760405162461bcd60e51b815260206004820152602260248201527f4d616b652073757265207468652070726963652069736e2774206e6567617469604482015261766560f01b606482015260840161055b565b6040805160a081018252838152306020808301828152338486018181526060860188815260016080880181815260008c8152600b9097529890952096518755925193860180546001600160a01b039586166001600160a01b03199182161790915590516002870180549190951691161790925551600384015592516004909201805492151560ff19909316929092179091556115419190846111ab565b604080513081523360208201529081018290526001606082015282907f9339409317fd01fabff48b703019016f49159bacc801ae872d2ca637d226e4c09060800160405180910390a25050565b816001600160a01b0316836001600160a01b031614156115f05760405162461bcd60e51b815260206004820152601960248201527f4552433732313a20617070726f766520746f2063616c6c657200000000000000604482015260640161055b565b6001600160a01b03838116600081815260056020908152604080832094871680845294825291829020805460ff191686151590811790915591519182527f17307eab39ab6107e8899845ad3d59bd9653f200f220920489ca2b5937696c31910160405180910390a3505050565b6116688484846111ab565b6116748484848461179a565b610c3b5760405162461bcd60e51b815260040161055b90611f8f565b606061169b82611037565b6116ff5760405162461bcd60e51b815260206004820152602f60248201527f4552433732314d657461646174613a2055524920717565727920666f72206e6f60448201526e3732bc34b9ba32b73a103a37b5b2b760891b606482015260840161055b565b600061171660408051602081019091526000815290565b905060008151116117365760405180602001604052806000815250610a60565b80611740846118a7565b604051602001611751929190611ec2565b6040516020818303038152906040529392505050565b61177183836119c1565b61177e600084848461179a565b6106915760405162461bcd60e51b815260040161055b90611f8f565b60006001600160a01b0384163b1561189c57604051630a85bd0160e11b81526001600160a01b0385169063150b7a02906117de903390899088908890600401611ef1565b602060405180830381600087803b1580156117f857600080fd5b505af1925050508015611828575060408051601f3d908101601f1916820190925261182591810190611dcc565b60015b611882573d808015611856576040519150601f19603f3d011682016040523d82523d6000602084013e61185b565b606091505b50805161187a5760405162461bcd60e51b815260040161055b90611f8f565b805181602001fd5b6001600160e01b031916630a85bd0160e11b149050610e61565b506001949350505050565b6060816118cb5750506040805180820190915260018152600360fc1b602082015290565b8160005b81156118f557806118df816120ea565b91506118ee9050600a83612058565b91506118cf565b60008167ffffffffffffffff81111561191e57634e487b7160e01b600052604160045260246000fd5b6040519080825280601f01601f191660200182016040528015611948576020820181803683370190505b5090505b8415610e615761195d60018361206c565b915061196a600a86612105565b611975906030612040565b60f81b81838151811061199857634e487b7160e01b600052603260045260246000fd5b60200101906001600160f81b031916908160001a9053506119ba600a86612058565b945061194c565b6001600160a01b038216611a175760405162461bcd60e51b815260206004820181905260248201527f4552433732313a206d696e7420746f20746865207a65726f2061646472657373604482015260640161055b565b611a2081611037565b15611a6d5760405162461bcd60e51b815260206004820152601c60248201527f4552433732313a20746f6b656e20616c7265616479206d696e74656400000000604482015260640161055b565b6001600160a01b0382166000908152600360205260408120805460019290611a96908490612040565b909155505060008181526002602052604080822080546001600160a01b0319166001600160a01b03861690811790915590518392907fddf252ad1be2c89b69c2b068fc378daa952ba7f163c4a11628f55a4df523b3ef908290a45050565b6040805160a08101825260008082526020820181905291810182905260608101829052608081019190915290565b828054611b2e906120af565b90600052602060002090601f016020900481019282611b505760008555611b96565b82601f10611b6957805160ff1916838001178555611b96565b82800160010185558215611b96579182015b82811115611b96578251825591602001919060010190611b7b565b50611ba2929150611ba6565b5090565b5b80821115611ba25760008155600101611ba7565b600067ffffffffffffffff80841115611bd657611bd6612145565b604051601f8501601f19908116603f01168101908282118183101715611bfe57611bfe612145565b81604052809350858152868686011115611c1757600080fd5b858560208301376000602087830101525050509392505050565b80356001600160a01b0381168114611c4857600080fd5b919050565b600060208284031215611c5e578081fd5b610a6082611c31565b60008060408385031215611c79578081fd5b611c8283611c31565b9150611c9060208401611c31565b90509250929050565b600080600060608486031215611cad578081fd5b611cb684611c31565b9250611cc460208501611c31565b9150604084013590509250925092565b60008060008060808587031215611ce9578081fd5b611cf285611c31565b9350611d0060208601611c31565b925060408501359150606085013567ffffffffffffffff811115611d22578182fd5b8501601f81018713611d32578182fd5b611d4187823560208401611bbb565b91505092959194509250565b60008060408385031215611d5f578182fd5b611d6883611c31565b915060208301358015158114611d7c578182fd5b809150509250929050565b60008060408385031215611d99578182fd5b611da283611c31565b946020939093013593505050565b600060208284031215611dc1578081fd5b8135610a608161215b565b600060208284031215611ddd578081fd5b8151610a608161215b565b60008060408385031215611dfa578182fd5b823567ffffffffffffffff811115611e10578283fd5b8301601f81018513611e20578283fd5b611e2f85823560208401611bbb565b95602094909401359450505050565b600060208284031215611e4f578081fd5b5035919050565b60008151808452611e6e816020860160208601612083565b601f01601f19169290920160200192915050565b805182526020808201516001600160a01b039081169184019190915260408083015190911690830152606080820151908301526080908101511515910152565b60008351611ed4818460208801612083565b835190830190611ee8818360208801612083565b01949350505050565b6001600160a01b0385811682528416602082015260408101839052608060608201819052600090611f2490830184611e56565b9695505050505050565b6020808252825182820181905260009190848201906040850190845b81811015611f7057611f5d838551611e82565b9284019260a09290920191600101611f4a565b50909695505050505050565b602081526000610a606020830184611e56565b60208082526032908201527f4552433732313a207472616e7366657220746f206e6f6e20455243373231526560408201527131b2b4bb32b91034b6b83632b6b2b73a32b960711b606082015260800190565b60208082526031908201527f4552433732313a207472616e736665722063616c6c6572206973206e6f74206f6040820152701ddb995c881b9bdc88185c1c1c9bdd9959607a1b606082015260800190565b60a0810161045b8284611e82565b6000821982111561205357612053612119565b500190565b6000826120675761206761212f565b500490565b60008282101561207e5761207e612119565b500390565b60005b8381101561209e578181015183820152602001612086565b83811115610c3b5750506000910152565b600181811c908216806120c357607f821691505b602082108114156120e457634e487b7160e01b600052602260045260246000fd5b50919050565b60006000198214156120fe576120fe612119565b5060010190565b6000826121145761211461212f565b500690565b634e487b7160e01b600052601160045260246000fd5b634e487b7160e01b600052601260045260246000fd5b634e487b7160e01b600052604160045260246000fd5b6001600160e01b03198116811461217157600080fd5b5056fea2646970667358221220abedcbab80206ec9b22a4b483b55572f3d3762ff7536a864129592a6671986ce64736f6c63430008040033",
  "linkReferences": {},
  "deployedLinkReferences": {}
}